{
  "contractName": "OurTutoCoin",
  "abi": [
    {
      "constant": true,
      "inputs": [],
      "name": "name",
      "outputs": [
        {
          "name": "",
          "type": "string"
        }
      ],
      "payable": false,
      "stateMutability": "view",
      "type": "function"
    },
    {
      "constant": true,
      "inputs": [],
      "name": "decimals",
      "outputs": [
        {
          "name": "",
          "type": "uint8"
        }
      ],
      "payable": false,
      "stateMutability": "view",
      "type": "function"
    },
    {
      "constant": true,
      "inputs": [],
      "name": "owner",
      "outputs": [
        {
          "name": "",
          "type": "address"
        }
      ],
      "payable": false,
      "stateMutability": "view",
      "type": "function"
    },
    {
      "constant": true,
      "inputs": [],
      "name": "symbol",
      "outputs": [
        {
          "name": "",
          "type": "string"
        }
      ],
      "payable": false,
      "stateMutability": "view",
      "type": "function"
    },
    {
      "inputs": [],
      "payable": false,
      "stateMutability": "nonpayable",
      "type": "constructor"
    },
    {
      "anonymous": false,
      "inputs": [
        {
          "indexed": true,
          "name": "from",
          "type": "address"
        },
        {
          "indexed": true,
          "name": "to",
          "type": "address"
        },
        {
          "indexed": false,
          "name": "value",
          "type": "uint256"
        }
      ],
      "name": "Transfer",
      "type": "event"
    },
    {
      "anonymous": false,
      "inputs": [
        {
          "indexed": true,
          "name": "owner",
          "type": "address"
        },
        {
          "indexed": true,
          "name": "spender",
          "type": "address"
        },
        {
          "indexed": false,
          "name": "value",
          "type": "uint256"
        }
      ],
      "name": "Approval",
      "type": "event"
    },
    {
      "anonymous": false,
      "inputs": [
        {
          "indexed": true,
          "name": "previousOwner",
          "type": "address"
        },
        {
          "indexed": true,
          "name": "newOwner",
          "type": "address"
        }
      ],
      "name": "OwnershipTransferred",
      "type": "event"
    },
    {
      "anonymous": false,
      "inputs": [
        {
          "indexed": true,
          "name": "to",
          "type": "address"
        },
        {
          "indexed": false,
          "name": "amount",
          "type": "uint256"
        }
      ],
      "name": "Mint",
      "type": "event"
    },
    {
      "constant": true,
      "inputs": [],
      "name": "totalSupply",
      "outputs": [
        {
          "name": "_totalSupply",
          "type": "uint256"
        }
      ],
      "payable": false,
      "stateMutability": "view",
      "type": "function"
    },
    {
      "constant": true,
      "inputs": [
        {
          "name": "tokenOwner",
          "type": "address"
        }
      ],
      "name": "balanceOf",
      "outputs": [
        {
          "name": "balance",
          "type": "uint256"
        }
      ],
      "payable": false,
      "stateMutability": "view",
      "type": "function"
    },
    {
      "constant": true,
      "inputs": [
        {
          "name": "_owner",
          "type": "address"
        },
        {
          "name": "_spender",
          "type": "address"
        }
      ],
      "name": "allowance",
      "outputs": [
        {
          "name": "",
          "type": "uint256"
        }
      ],
      "payable": false,
      "stateMutability": "view",
      "type": "function"
    },
    {
      "constant": false,
      "inputs": [
        {
          "name": "_to",
          "type": "address"
        },
        {
          "name": "_value",
          "type": "uint256"
        }
      ],
      "name": "transfer",
      "outputs": [
        {
          "name": "",
          "type": "bool"
        }
      ],
      "payable": false,
      "stateMutability": "nonpayable",
      "type": "function"
    },
    {
      "constant": false,
      "inputs": [
        {
          "name": "_spender",
          "type": "address"
        },
        {
          "name": "_value",
          "type": "uint256"
        }
      ],
      "name": "approve",
      "outputs": [
        {
          "name": "",
          "type": "bool"
        }
      ],
      "payable": false,
      "stateMutability": "nonpayable",
      "type": "function"
    },
    {
      "constant": false,
      "inputs": [
        {
          "name": "_from",
          "type": "address"
        },
        {
          "name": "_to",
          "type": "address"
        },
        {
          "name": "_value",
          "type": "uint256"
        }
      ],
      "name": "transferFrom",
      "outputs": [
        {
          "name": "",
          "type": "bool"
        }
      ],
      "payable": false,
      "stateMutability": "nonpayable",
      "type": "function"
    },
    {
      "constant": false,
      "inputs": [
        {
          "name": "newOwner",
          "type": "address"
        }
      ],
      "name": "transferOwnership",
      "outputs": [],
      "payable": false,
      "stateMutability": "nonpayable",
      "type": "function"
    },
    {
      "constant": false,
      "inputs": [
        {
          "name": "_to",
          "type": "address"
        },
        {
          "name": "_amount",
          "type": "uint256"
        }
      ],
      "name": "mint",
      "outputs": [
        {
          "name": "",
          "type": "bool"
        }
      ],
      "payable": false,
      "stateMutability": "nonpayable",
      "type": "function"
    }
  ],
  "bytecode": "0x60606040526040805190810160405280601181526020017f4f7572205475746f7269616c20436f696e00000000000000000000000000000081525060019080519060200190620000519291906200010f565b506040805190810160405280600381526020017f4f54430000000000000000000000000000000000000000000000000000000000815250600290805190602001906200009f9291906200010f565b506002600360006101000a81548160ff021916908360ff1602179055503415620000c857600080fd5b33600660006101000a81548173ffffffffffffffffffffffffffffffffffffffff021916908373ffffffffffffffffffffffffffffffffffffffff160217905550620001be565b828054600181600116156101000203166002900490600052602060002090601f016020900481019282601f106200015257805160ff191683800117855562000183565b8280016001018555821562000183579182015b828111156200018257825182559160200191906001019062000165565b5b50905062000192919062000196565b5090565b620001bb91905b80821115620001b75760008160009055506001016200019d565b5090565b90565b6111ab80620001ce6000396000f3006060604052600436106100ba576000357c0100000000000000000000000000000000000000000000000000000000900463ffffffff16806306fdde03146100bf578063095ea7b31461014d57806318160ddd146101a757806323b872dd146101d0578063313ce5671461024957806340c10f191461027857806370a08231146102d25780638da5cb5b1461031f57806395d89b4114610374578063a9059cbb14610402578063dd62ed3e1461045c578063f2fde38b146104c8575b600080fd5b34156100ca57600080fd5b6100d2610501565b6040518080602001828103825283818151815260200191508051906020019080838360005b838110156101125780820151818401526020810190506100f7565b50505050905090810190601f16801561013f5780820380516001836020036101000a031916815260200191505b509250505060405180910390f35b341561015857600080fd5b61018d600480803573ffffffffffffffffffffffffffffffffffffffff1690602001909190803590602001909190505061059f565b604051808215151515815260200191505060405180910390f35b34156101b257600080fd5b6101ba610691565b6040518082815260200191505060405180910390f35b34156101db57600080fd5b61022f600480803573ffffffffffffffffffffffffffffffffffffffff1690602001909190803573ffffffffffffffffffffffffffffffffffffffff1690602001909190803590602001909190505061069a565b604051808215151515815260200191505060405180910390f35b341561025457600080fd5b61025c610a59565b604051808260ff1660ff16815260200191505060405180910390f35b341561028357600080fd5b6102b8600480803573ffffffffffffffffffffffffffffffffffffffff16906020019091908035906020019091905050610a6c565b604051808215151515815260200191505060405180910390f35b34156102dd57600080fd5b610309600480803573ffffffffffffffffffffffffffffffffffffffff16906020019091905050610c38565b6040518082815260200191505060405180910390f35b341561032a57600080fd5b610332610c81565b604051808273ffffffffffffffffffffffffffffffffffffffff1673ffffffffffffffffffffffffffffffffffffffff16815260200191505060405180910390f35b341561037f57600080fd5b610387610ca7565b6040518080602001828103825283818151815260200191508051906020019080838360005b838110156103c75780820151818401526020810190506103ac565b50505050905090810190601f1680156103f45780820380516001836020036101000a031916815260200191505b509250505060405180910390f35b341561040d57600080fd5b610442600480803573ffffffffffffffffffffffffffffffffffffffff16906020019091908035906020019091905050610d45565b604051808215151515815260200191505060405180910390f35b341561046757600080fd5b6104b2600480803573ffffffffffffffffffffffffffffffffffffffff1690602001909190803573ffffffffffffffffffffffffffffffffffffffff16906020019091905050610f69565b6040518082815260200191505060405180910390f35b34156104d357600080fd5b6104ff600480803573ffffffffffffffffffffffffffffffffffffffff16906020019091905050610ff0565b005b60018054600181600116156101000203166002900480601f0160208091040260200160405190810160405280929190818152602001828054600181600116156101000203166002900480156105975780601f1061056c57610100808354040283529160200191610597565b820191906000526020600020905b81548152906001019060200180831161057a57829003601f168201915b505050505081565b600081600560003373ffffffffffffffffffffffffffffffffffffffff1673ffffffffffffffffffffffffffffffffffffffff16815260200190815260200160002060008573ffffffffffffffffffffffffffffffffffffffff1673ffffffffffffffffffffffffffffffffffffffff168152602001908152602001600020819055508273ffffffffffffffffffffffffffffffffffffffff163373ffffffffffffffffffffffffffffffffffffffff167f8c5be1e5ebec7d5bd14f71427d1e84f3dd0314c0f7b2291e5b200ac8c7c3b925846040518082815260200191505060405180910390a36001905092915050565b60008054905090565b60008073ffffffffffffffffffffffffffffffffffffffff168373ffffffffffffffffffffffffffffffffffffffff16141515156106d757600080fd5b600460008573ffffffffffffffffffffffffffffffffffffffff1673ffffffffffffffffffffffffffffffffffffffff16815260200190815260200160002054821115151561072557600080fd5b600560008573ffffffffffffffffffffffffffffffffffffffff1673ffffffffffffffffffffffffffffffffffffffff16815260200190815260200160002060003373ffffffffffffffffffffffffffffffffffffffff1673ffffffffffffffffffffffffffffffffffffffff1681526020019081526020016000205482111515156107b057600080fd5b61080282600460008773ffffffffffffffffffffffffffffffffffffffff1673ffffffffffffffffffffffffffffffffffffffff1681526020019081526020016000205461114890919063ffffffff16565b600460008673ffffffffffffffffffffffffffffffffffffffff1673ffffffffffffffffffffffffffffffffffffffff1681526020019081526020016000208190555061089782600460008673ffffffffffffffffffffffffffffffffffffffff1673ffffffffffffffffffffffffffffffffffffffff1681526020019081526020016000205461116190919063ffffffff16565b600460008573ffffffffffffffffffffffffffffffffffffffff1673ffffffffffffffffffffffffffffffffffffffff1681526020019081526020016000208190555061096982600560008773ffffffffffffffffffffffffffffffffffffffff1673ffffffffffffffffffffffffffffffffffffffff16815260200190815260200160002060003373ffffffffffffffffffffffffffffffffffffffff1673ffffffffffffffffffffffffffffffffffffffff1681526020019081526020016000205461114890919063ffffffff16565b600560008673ffffffffffffffffffffffffffffffffffffffff1673ffffffffffffffffffffffffffffffffffffffff16815260200190815260200160002060003373ffffffffffffffffffffffffffffffffffffffff1673ffffffffffffffffffffffffffffffffffffffff168152602001908152602001600020819055508273ffffffffffffffffffffffffffffffffffffffff168473ffffffffffffffffffffffffffffffffffffffff167fddf252ad1be2c89b69c2b068fc378daa952ba7f163c4a11628f55a4df523b3ef846040518082815260200191505060405180910390a3600190509392505050565b600360009054906101000a900460ff1681565b6000600660009054906101000a900473ffffffffffffffffffffffffffffffffffffffff1673ffffffffffffffffffffffffffffffffffffffff163373ffffffffffffffffffffffffffffffffffffffff16141515610aca57600080fd5b610adf8260005461116190919063ffffffff16565b600081905550610b3782600460008673ffffffffffffffffffffffffffffffffffffffff1673ffffffffffffffffffffffffffffffffffffffff1681526020019081526020016000205461116190919063ffffffff16565b600460008573ffffffffffffffffffffffffffffffffffffffff1673ffffffffffffffffffffffffffffffffffffffff168152602001908152602001600020819055508273ffffffffffffffffffffffffffffffffffffffff167f0f6798a560793a54c3bcfe86a93cde1e73087d944c0ea20544137d4121396885836040518082815260200191505060405180910390a28273ffffffffffffffffffffffffffffffffffffffff16600073ffffffffffffffffffffffffffffffffffffffff167fddf252ad1be2c89b69c2b068fc378daa952ba7f163c4a11628f55a4df523b3ef846040518082815260200191505060405180910390a36001905092915050565b6000600460008373ffffffffffffffffffffffffffffffffffffffff1673ffffffffffffffffffffffffffffffffffffffff168152602001908152602001600020549050919050565b600660009054906101000a900473ffffffffffffffffffffffffffffffffffffffff1681565b60028054600181600116156101000203166002900480601f016020809104026020016040519081016040528092919081815260200182805460018160011615610100020316600290048015610d3d5780601f10610d1257610100808354040283529160200191610d3d565b820191906000526020600020905b815481529060010190602001808311610d2057829003601f168201915b505050505081565b60008073ffffffffffffffffffffffffffffffffffffffff168373ffffffffffffffffffffffffffffffffffffffff1614151515610d8257600080fd5b600460003373ffffffffffffffffffffffffffffffffffffffff1673ffffffffffffffffffffffffffffffffffffffff168152602001908152602001600020548211151515610dd057600080fd5b610e2282600460003373ffffffffffffffffffffffffffffffffffffffff1673ffffffffffffffffffffffffffffffffffffffff1681526020019081526020016000205461114890919063ffffffff16565b600460003373ffffffffffffffffffffffffffffffffffffffff1673ffffffffffffffffffffffffffffffffffffffff16815260200190815260200160002081905550610eb782600460008673ffffffffffffffffffffffffffffffffffffffff1673ffffffffffffffffffffffffffffffffffffffff1681526020019081526020016000205461116190919063ffffffff16565b600460008573ffffffffffffffffffffffffffffffffffffffff1673ffffffffffffffffffffffffffffffffffffffff168152602001908152602001600020819055508273ffffffffffffffffffffffffffffffffffffffff163373ffffffffffffffffffffffffffffffffffffffff167fddf252ad1be2c89b69c2b068fc378daa952ba7f163c4a11628f55a4df523b3ef846040518082815260200191505060405180910390a36001905092915050565b6000600560008473ffffffffffffffffffffffffffffffffffffffff1673ffffffffffffffffffffffffffffffffffffffff16815260200190815260200160002060008373ffffffffffffffffffffffffffffffffffffffff1673ffffffffffffffffffffffffffffffffffffffff16815260200190815260200160002054905092915050565b600660009054906101000a900473ffffffffffffffffffffffffffffffffffffffff1673ffffffffffffffffffffffffffffffffffffffff163373ffffffffffffffffffffffffffffffffffffffff1614151561104c57600080fd5b600073ffffffffffffffffffffffffffffffffffffffff168173ffffffffffffffffffffffffffffffffffffffff161415151561108857600080fd5b8073ffffffffffffffffffffffffffffffffffffffff16600660009054906101000a900473ffffffffffffffffffffffffffffffffffffffff1673ffffffffffffffffffffffffffffffffffffffff167f8be0079c531659141344cd1fd0a4f28419497f9722a3daafe3b4186f6b6457e060405160405180910390a380600660006101000a81548173ffffffffffffffffffffffffffffffffffffffff021916908373ffffffffffffffffffffffffffffffffffffffff16021790555050565b600082821115151561115657fe5b818303905092915050565b600080828401905083811015151561117557fe5b80915050929150505600a165627a7a72305820dec19e31307735b6cb950333fdf1361a4f32990c1d09b8652821bf96b8f897d40029",
  "source": "pragma solidity ^0.4.18;\r\n\r\n    /**\r\n     * @title SafeMath\r\n     * @dev Math operations with safety checks that throw on error\r\n     * @notice source: https://github.com/OpenZeppelin/zeppelin-solidity/blob/master/contracts/math/SafeMath.sol\r\n     */\r\n\r\nlibrary SafeMath {\r\n  function mul(uint256 a, uint256 b) internal pure returns (uint256) {\r\n    if (a == 0) {\r\n      return 0;\r\n    }\r\n    uint256 c = a * b;\r\n    assert(c / a == b);\r\n    return c;\r\n  }\r\n\r\n  function div(uint256 a, uint256 b) internal pure returns (uint256) {\r\n    // assert(b > 0); // Solidity automatically throws when dividing by 0\r\n    uint256 c = a / b;\r\n    // assert(a == b * c + a % b); // There is no case in which this doesn't hold\r\n    return c;\r\n  }\r\n\r\n  function sub(uint256 a, uint256 b) internal pure returns (uint256) {\r\n    assert(b <= a);\r\n    return a - b;\r\n  }\r\n\r\n  function add(uint256 a, uint256 b) internal pure returns (uint256) {\r\n    uint256 c = a + b;\r\n    assert(c >= a);\r\n    return c;\r\n  }\r\n}\r\n\r\n\t/**\r\n\t * @title OurTutoCoin\r\n\t * @dev A one file ERC20 token for the 4th part of the Ethereum Development Walkthrough tutorial series\r\n\t * \r\n\t * @notice check https://github.com/OpenZeppelin/zeppelin-solidity for a better, modular code\r\n\t*/\r\n\r\ncontract OurTutoCoin {\r\n\tusing SafeMath for uint256; // SafeMath methods will be available for the type \"unit256\"\r\n\r\n\tuint256 public totalSupply;\r\n\r\n\tstring public name = \"Our Tutorial Coin\";\r\n\tstring public symbol = \"OTC\";\r\n\tuint8 public decimals = 2;\r\n\r\n\tmapping(address => uint256) balances;\r\n\tmapping (address => mapping (address => uint256)) internal allowed;\r\n\r\n\taddress public owner;\r\n\r\n\tevent Transfer(address indexed from, address indexed to, uint256 value);\r\n\tevent Approval(address indexed owner, address indexed spender, uint256 value);\r\n\tevent OwnershipTransferred(address indexed previousOwner, address indexed newOwner);\r\n\tevent Mint(address indexed to, uint256 amount);\r\n\r\n\t/**\r\n\t* @dev Throws if called by any account other than the owner.\r\n\t*/\r\n\tmodifier onlyOwner() {\r\n\t\trequire(msg.sender == owner);\r\n\t\t_;\r\n\t}\r\n\r\n\t/**\r\n\t* @dev The OurTutoCoin constructor sets the original `owner` of the contract to the sender\r\n\t* account.\r\n\t*/\r\n\tfunction OurTutoCoin() public {\r\n\t\towner = msg.sender;\r\n\t}\r\n\r\n\tfunction totalSupply() public constant returns (uint256 _totalSupply) {\r\n\t\treturn totalSupply;\r\n\t}\r\n\r\n\t/**\r\n\t* @dev Gets the balance of the specified address.\r\n\t* @param tokenOwner The address to query the the balance of.\r\n\t* @return An uint256 representing the amount owned by the passed address.\r\n\t*/\r\n\tfunction balanceOf(address tokenOwner) public view returns (uint256 balance) {\r\n\t\t return balances[tokenOwner];\r\n\t}\t\r\n\r\n\t/**\r\n\t* @dev Function to check the amount of tokens that an owner allowed to a spender.\r\n\t* @param _owner address The address which owns the funds.\r\n\t* @param _spender address The address which will spend the funds.\r\n\t* @return A uint256 specifying the amount of tokens still available for the spender.\r\n\t*/\r\n\tfunction allowance(address _owner, address _spender) public view returns (uint256) {\r\n\t\treturn allowed[_owner][_spender];\r\n\t}\r\n\r\n\t/**\r\n\t* @dev transfer token for a specified address\r\n\t* @param _to The address to transfer to.\r\n\t* @param _value The amount to be transferred.\r\n\t*/\r\n\tfunction transfer(address _to, uint256 _value) public returns (bool) {\r\n\t\trequire(_to != address(0));\r\n\t\trequire(_value <= balances[msg.sender]);\r\n\r\n\t\t// SafeMath.sub will throw if there is not enough balance.\r\n\t\tbalances[msg.sender] = balances[msg.sender].sub(_value);\r\n\t\tbalances[_to] = balances[_to].add(_value);\r\n\t\tTransfer(msg.sender, _to, _value);\r\n\t\treturn true;\r\n\t}\r\n\r\n\t/**\r\n\t   * @dev Approve the passed address to spend the specified amount of tokens on behalf of msg.sender.\r\n\t   *\r\n\t   * Beware that changing an allowance with this method brings the risk that someone may use both the old\r\n\t   * and the new allowance by unfortunate transaction ordering. One possible solution to mitigate this\r\n\t   * race condition is to first reduce the spender's allowance to 0 and set the desired value afterwards:\r\n\t   * https://github.com/ethereum/EIPs/issues/20#issuecomment-263524729\r\n\t   * @param _spender The address which will spend the funds.\r\n\t   * @param _value The amount of tokens to be spent.\r\n\t   */\r\n\tfunction approve(address _spender, uint256 _value) public returns (bool) {\r\n\t\tallowed[msg.sender][_spender] = _value;\r\n\t\tApproval(msg.sender, _spender, _value);\r\n\t\treturn true;\r\n\t}\r\n\r\n\t/**\r\n\t* @dev Transfer tokens from one address to another\r\n\t* @param _from address The address which you want to send tokens from\r\n\t* @param _to address The address which you want to transfer to\r\n\t* @param _value uint256 the amount of tokens to be transferred\r\n\t*/\r\n\tfunction transferFrom(address _from, address _to, uint256 _value) public returns (bool) {\r\n\t\trequire(_to != address(0));\r\n\t\trequire(_value <= balances[_from]);\r\n\t\trequire(_value <= allowed[_from][msg.sender]);\r\n\r\n\t\tbalances[_from] = balances[_from].sub(_value);\r\n\t\tbalances[_to] = balances[_to].add(_value);\r\n\t\tallowed[_from][msg.sender] = allowed[_from][msg.sender].sub(_value);\r\n\t\tTransfer(_from, _to, _value);\r\n\t\treturn true;\r\n\t}\r\n\r\n\r\n\t/**\r\n\t* @dev Allows the current owner to transfer control of the contract to a newOwner.\r\n\t* @param newOwner The address to transfer ownership to.\r\n\t*/\r\n\tfunction transferOwnership(address newOwner) public onlyOwner {\r\n\t\trequire(newOwner != address(0));\r\n\t\tOwnershipTransferred(owner, newOwner);\r\n\t\towner = newOwner;\r\n\t}\r\n\r\n\tfunction mint(address _to, uint256 _amount) onlyOwner public returns (bool) {\r\n\t\ttotalSupply = totalSupply.add(_amount);\r\n\t\tbalances[_to] = balances[_to].add(_amount);\r\n\t\tMint(_to, _amount);\r\n\t\tTransfer(address(0), _to, _amount);\r\n\t\treturn true;\r\n\t}\r\n}",
  "sourcePath": "F:\\Ethereum Smart contract\\smart-contract-tutorial2.0\\contracts\\OurTutoCoin.sol",
  "compiler": {
    "name": "solc",
    "version": "0.4.19+commit.c4cbbb05.Emscripten.clang"
  },
  "schemaVersion": "2.0.0",
  "updatedAt": "2018-05-06T07:50:54.040Z"
}