{
  "contractName": "Wrestling7",
  "abi": [
    {
      "constant": true,
      "inputs": [],
      "name": "theWinner",
      "outputs": [
        {
          "name": "",
          "type": "address"
        }
      ],
      "payable": false,
      "stateMutability": "view",
      "type": "function"
    },
    {
      "constant": true,
      "inputs": [],
      "name": "wrestler2",
      "outputs": [
        {
          "name": "",
          "type": "address"
        }
      ],
      "payable": false,
      "stateMutability": "view",
      "type": "function"
    },
    {
      "constant": true,
      "inputs": [],
      "name": "wrestler1Played",
      "outputs": [
        {
          "name": "",
          "type": "bool"
        }
      ],
      "payable": false,
      "stateMutability": "view",
      "type": "function"
    },
    {
      "constant": true,
      "inputs": [],
      "name": "wrestler1",
      "outputs": [
        {
          "name": "",
          "type": "address"
        }
      ],
      "payable": false,
      "stateMutability": "view",
      "type": "function"
    },
    {
      "constant": true,
      "inputs": [],
      "name": "gameFinished",
      "outputs": [
        {
          "name": "",
          "type": "bool"
        }
      ],
      "payable": false,
      "stateMutability": "view",
      "type": "function"
    },
    {
      "constant": true,
      "inputs": [],
      "name": "wrestler2Played",
      "outputs": [
        {
          "name": "",
          "type": "bool"
        }
      ],
      "payable": false,
      "stateMutability": "view",
      "type": "function"
    },
    {
      "inputs": [],
      "payable": false,
      "stateMutability": "nonpayable",
      "type": "constructor"
    },
    {
      "anonymous": false,
      "inputs": [
        {
          "indexed": false,
          "name": "wrestler1",
          "type": "address"
        },
        {
          "indexed": false,
          "name": "wrestler2",
          "type": "address"
        }
      ],
      "name": "WrestlingStartsEvent",
      "type": "event"
    },
    {
      "anonymous": false,
      "inputs": [
        {
          "indexed": false,
          "name": "wrestler1Deposit",
          "type": "uint256"
        },
        {
          "indexed": false,
          "name": "wrestler2Deposit",
          "type": "uint256"
        }
      ],
      "name": "EndOfRoundEvent",
      "type": "event"
    },
    {
      "anonymous": false,
      "inputs": [
        {
          "indexed": false,
          "name": "winner",
          "type": "address"
        },
        {
          "indexed": false,
          "name": "gains",
          "type": "uint256"
        }
      ],
      "name": "EndOfWrestlingEvent",
      "type": "event"
    },
    {
      "constant": false,
      "inputs": [],
      "name": "registerAsAnOpponent",
      "outputs": [],
      "payable": false,
      "stateMutability": "nonpayable",
      "type": "function"
    },
    {
      "constant": false,
      "inputs": [],
      "name": "wrestle",
      "outputs": [],
      "payable": true,
      "stateMutability": "payable",
      "type": "function"
    },
    {
      "constant": false,
      "inputs": [],
      "name": "withdraw",
      "outputs": [],
      "payable": false,
      "stateMutability": "nonpayable",
      "type": "function"
    },
    {
      "constant": false,
      "inputs": [],
      "name": "clearState",
      "outputs": [],
      "payable": false,
      "stateMutability": "nonpayable",
      "type": "function"
    },
    {
      "constant": false,
      "inputs": [],
      "name": "resetAnOpponent",
      "outputs": [],
      "payable": false,
      "stateMutability": "nonpayable",
      "type": "function"
    }
  ],
  "bytecode": "0x6060604052341561000f57600080fd5b336000806101000a81548173ffffffffffffffffffffffffffffffffffffffff021916908373ffffffffffffffffffffffffffffffffffffffff160217905550610a0d8061005e6000396000f3006060604052600436106100af576000357c0100000000000000000000000000000000000000000000000000000000900463ffffffff16806303cc5597146100b45780633ccfd60b146100be5780633f41c6a2146100d35780639d24e482146100e85780639e07f92a1461013d5780639ede385814610192578063a8b42f1f146101bf578063e2f0a978146101d4578063f0136a6314610229578063f0f324971461023e578063f973728e1461026b575b600080fd5b6100bc610298565b005b34156100c957600080fd5b6100d1610505565b005b34156100de57600080fd5b6100e66105d2565b005b34156100f357600080fd5b6100fb610616565b604051808273ffffffffffffffffffffffffffffffffffffffff1673ffffffffffffffffffffffffffffffffffffffff16815260200191505060405180910390f35b341561014857600080fd5b61015061063c565b604051808273ffffffffffffffffffffffffffffffffffffffff1673ffffffffffffffffffffffffffffffffffffffff16815260200191505060405180910390f35b341561019d57600080fd5b6101a5610662565b604051808215151515815260200191505060405180910390f35b34156101ca57600080fd5b6101d2610675565b005b34156101df57600080fd5b6101e76107ef565b604051808273ffffffffffffffffffffffffffffffffffffffff1673ffffffffffffffffffffffffffffffffffffffff16815260200191505060405180910390f35b341561023457600080fd5b61023c610814565b005b341561024957600080fd5b610251610867565b604051808215151515815260200191505060405180910390f35b341561027657600080fd5b61027e61087a565b604051808215151515815260200191505060405180910390f35b600460009054906101000a900460ff1615801561035957506000809054906101000a900473ffffffffffffffffffffffffffffffffffffffff1673ffffffffffffffffffffffffffffffffffffffff163373ffffffffffffffffffffffffffffffffffffffff1614806103585750600160009054906101000a900473ffffffffffffffffffffffffffffffffffffffff1673ffffffffffffffffffffffffffffffffffffffff163373ffffffffffffffffffffffffffffffffffffffff16145b5b151561036457600080fd5b6000809054906101000a900473ffffffffffffffffffffffffffffffffffffffff1673ffffffffffffffffffffffffffffffffffffffff163373ffffffffffffffffffffffffffffffffffffffff1614156104055760001515600160149054906101000a900460ff1615151415156103db57600080fd5b60018060146101000a81548160ff021916908315150217905550346002540160028190555061044d565b60001515600160159054906101000a900460ff16151514151561042757600080fd5b60018060156101000a81548160ff02191690831515021790555034600354016003819055505b600160149054906101000a900460ff1680156104755750600160159054906101000a900460ff165b15610503576002600354026002541015156104b9576104b46000809054906101000a900473ffffffffffffffffffffffffffffffffffffffff1661088d565b610502565b60028054026003541015156104f8576104f3600160009054906101000a900473ffffffffffffffffffffffffffffffffffffffff1661088d565b610501565b610500610966565b5b5b5b565b600460009054906101000a900460ff16801561056e57503373ffffffffffffffffffffffffffffffffffffffff16600460019054906101000a900473ffffffffffffffffffffffffffffffffffffffff1673ffffffffffffffffffffffffffffffffffffffff16145b151561057957600080fd5b3373ffffffffffffffffffffffffffffffffffffffff166108fc3073ffffffffffffffffffffffffffffffffffffffff16319081150290604051600060405180830381858888f1935050505015156105d057600080fd5b565b6000600160006101000a81548173ffffffffffffffffffffffffffffffffffffffff021916908373ffffffffffffffffffffffffffffffffffffffff160217905550565b600460019054906101000a900473ffffffffffffffffffffffffffffffffffffffff1681565b600160009054906101000a900473ffffffffffffffffffffffffffffffffffffffff1681565b600160149054906101000a900460ff1681565b600073ffffffffffffffffffffffffffffffffffffffff16600160009054906101000a900473ffffffffffffffffffffffffffffffffffffffff1673ffffffffffffffffffffffffffffffffffffffff161415156106d257600080fd5b33600160006101000a81548173ffffffffffffffffffffffffffffffffffffffff021916908373ffffffffffffffffffffffffffffffffffffffff1602179055507fd4443f0433b17d5fcbda14745060c62f4fd645677efd560e394d49cc6b73b9e56000809054906101000a900473ffffffffffffffffffffffffffffffffffffffff16600160009054906101000a900473ffffffffffffffffffffffffffffffffffffffff16604051808373ffffffffffffffffffffffffffffffffffffffff1673ffffffffffffffffffffffffffffffffffffffff1681526020018273ffffffffffffffffffffffffffffffffffffffff1673ffffffffffffffffffffffffffffffffffffffff1681526020019250505060405180910390a1565b6000809054906101000a900473ffffffffffffffffffffffffffffffffffffffff1681565b6000600460006101000a81548160ff0219169083151502179055506000600160146101000a81548160ff0219169083151502179055506000600160156101000a81548160ff021916908315150217905550565b600460009054906101000a900460ff1681565b600160159054906101000a900460ff1681565b6001600460006101000a81548160ff02191690831515021790555080600460016101000a81548173ffffffffffffffffffffffffffffffffffffffff021916908373ffffffffffffffffffffffffffffffffffffffff160217905550600354600254016005819055507f132c17ee6430a7c27424b2711c0e3f020ae13d9d62cfb347ae343c2180654bcb81600554604051808373ffffffffffffffffffffffffffffffffffffffff1673ffffffffffffffffffffffffffffffffffffffff1681526020018281526020019250505060405180910390a150565b6000600160146101000a81548160ff0219169083151502179055506000600160156101000a81548160ff0219169083151502179055507f4a06b026e39d5ecf4150ef1983227e240bcd23677c8d89479f9521c4e7bed63e600254600354604051808381526020018281526020019250505060405180910390a15600a165627a7a723058206140eb244c87c0aa511d0a0a837438c003d72f7fd05ed16ba90b7debfb500bd90029",
  "source": "pragma solidity ^0.4.17;\r\n\r\ncontract Wrestling7 {\r\n    \r\n    address public wrestler1;\r\n\taddress public wrestler2;\r\n\r\n\tbool public wrestler1Played;\r\n\tbool public wrestler2Played;\r\n\r\n\tuint private wrestler1Deposit;\r\n\tuint private wrestler2Deposit;\r\n\r\n\tbool public gameFinished; \r\n\taddress public theWinner;\r\n\tuint gains;\r\n\r\n\tevent WrestlingStartsEvent(address wrestler1, address wrestler2);\r\n\tevent EndOfRoundEvent(uint wrestler1Deposit, uint wrestler2Deposit);\r\n\tevent EndOfWrestlingEvent(address winner, uint gains);\r\n\r\n\tfunction Wrestling7() public {\r\n\t  wrestler1 = msg.sender;\r\n\t}\r\n\r\n\tfunction registerAsAnOpponent() public {\r\n\t    require(wrestler2 == address(0));\r\n\r\n\t    wrestler2 = msg.sender;\r\n\r\n\t    WrestlingStartsEvent(wrestler1, wrestler2);\r\n\t}\r\n\r\n\tfunction wrestle() public payable {\r\n        require(!gameFinished && (msg.sender == wrestler1 || msg.sender == wrestler2));\r\n\r\n        if(msg.sender == wrestler1) {\r\n            require(wrestler1Played == false);\r\n            wrestler1Played = true;\r\n            wrestler1Deposit = wrestler1Deposit + msg.value;\r\n        } else { \r\n            require(wrestler2Played == false);\r\n            wrestler2Played = true;\r\n            wrestler2Deposit = wrestler2Deposit + msg.value;\r\n        }\r\n        if(wrestler1Played && wrestler2Played) {\r\n            if(wrestler1Deposit >= wrestler2Deposit * 2) {\r\n                endOfGame(wrestler1);\r\n            } else if (wrestler2Deposit >= wrestler1Deposit * 2) {\r\n                endOfGame(wrestler2);\r\n            } else {\r\n                endOfRound();\r\n            }\r\n        }\r\n    }\r\n\r\n    function endOfRound() internal {\r\n        wrestler1Played = false;\r\n        wrestler2Played = false;\r\n\r\n        EndOfRoundEvent(wrestler1Deposit, wrestler2Deposit);\r\n    }\r\n\r\n    function endOfGame(address winner) internal {\r\n        gameFinished = true;\r\n        theWinner = winner;\r\n\r\n        gains = wrestler1Deposit + wrestler2Deposit;\r\n        EndOfWrestlingEvent(winner, gains);\r\n    }\r\n\r\n    function withdraw() public {\r\n        require(gameFinished && theWinner == msg.sender);\r\n\r\n        msg.sender.transfer(this.balance);\r\n    }\r\n\r\n    // 原教程没有，添加此函数对合约的业务逻辑进一步完善，我认为，角力结束后应当清除相应的状态，以控制合约的生命周期\r\n    // 添加清除状态函数\r\n    function clearState() public {\r\n        gameFinished = false;\r\n        wrestler1Played = false;\r\n        wrestler2Played = false;\r\n    }\r\n\r\n    // 重置二号玩家\r\n    function resetAnOpponent() public {\r\n        wrestler2 = address(0);\r\n    }\r\n\r\n}",
  "sourcePath": "F:\\Ethereum Smart contract\\smart-contract-tutorial2.0\\contracts\\Wrestling7.sol",
  "compiler": {
    "name": "solc",
    "version": "0.4.19+commit.c4cbbb05.Emscripten.clang"
  },
  "schemaVersion": "2.0.0",
  "updatedAt": "2018-05-06T10:40:40.739Z"
}