{
  "contractName": "Wrestling3",
  "abi": [
    {
      "constant": true,
      "inputs": [],
      "name": "theWinner",
      "outputs": [
        {
          "name": "",
          "type": "address"
        }
      ],
      "payable": false,
      "stateMutability": "view",
      "type": "function"
    },
    {
      "constant": true,
      "inputs": [],
      "name": "wrestler2",
      "outputs": [
        {
          "name": "",
          "type": "address"
        }
      ],
      "payable": false,
      "stateMutability": "view",
      "type": "function"
    },
    {
      "constant": true,
      "inputs": [],
      "name": "wrestler1Played",
      "outputs": [
        {
          "name": "",
          "type": "bool"
        }
      ],
      "payable": false,
      "stateMutability": "view",
      "type": "function"
    },
    {
      "constant": true,
      "inputs": [],
      "name": "wrestler1",
      "outputs": [
        {
          "name": "",
          "type": "address"
        }
      ],
      "payable": false,
      "stateMutability": "view",
      "type": "function"
    },
    {
      "constant": true,
      "inputs": [],
      "name": "gameFinished",
      "outputs": [
        {
          "name": "",
          "type": "bool"
        }
      ],
      "payable": false,
      "stateMutability": "view",
      "type": "function"
    },
    {
      "constant": true,
      "inputs": [],
      "name": "wrestler2Played",
      "outputs": [
        {
          "name": "",
          "type": "bool"
        }
      ],
      "payable": false,
      "stateMutability": "view",
      "type": "function"
    },
    {
      "inputs": [],
      "payable": false,
      "stateMutability": "nonpayable",
      "type": "constructor"
    },
    {
      "anonymous": false,
      "inputs": [
        {
          "indexed": false,
          "name": "wrestler1",
          "type": "address"
        },
        {
          "indexed": false,
          "name": "wrestler2",
          "type": "address"
        }
      ],
      "name": "WrestlingStartsEvent",
      "type": "event"
    },
    {
      "anonymous": false,
      "inputs": [
        {
          "indexed": false,
          "name": "wrestler1Deposit",
          "type": "uint256"
        },
        {
          "indexed": false,
          "name": "wrestler2Deposit",
          "type": "uint256"
        }
      ],
      "name": "EndOfRoundEvent",
      "type": "event"
    },
    {
      "anonymous": false,
      "inputs": [
        {
          "indexed": false,
          "name": "winner",
          "type": "address"
        },
        {
          "indexed": false,
          "name": "gains",
          "type": "uint256"
        }
      ],
      "name": "EndOfWrestlingEvent",
      "type": "event"
    },
    {
      "constant": false,
      "inputs": [],
      "name": "registerAsAnOpponent",
      "outputs": [],
      "payable": false,
      "stateMutability": "nonpayable",
      "type": "function"
    },
    {
      "constant": false,
      "inputs": [],
      "name": "wrestle",
      "outputs": [],
      "payable": true,
      "stateMutability": "payable",
      "type": "function"
    },
    {
      "constant": false,
      "inputs": [],
      "name": "withdraw",
      "outputs": [],
      "payable": false,
      "stateMutability": "nonpayable",
      "type": "function"
    },
    {
      "constant": false,
      "inputs": [],
      "name": "clearState",
      "outputs": [],
      "payable": false,
      "stateMutability": "nonpayable",
      "type": "function"
    }
  ],
  "bytecode": "0x6060604052341561000f57600080fd5b336000806101000a81548173ffffffffffffffffffffffffffffffffffffffff021916908373ffffffffffffffffffffffffffffffffffffffff1602179055506109a28061005e6000396000f3006060604052600436106100a4576000357c0100000000000000000000000000000000000000000000000000000000900463ffffffff16806303cc5597146100a95780633ccfd60b146100b35780639d24e482146100c85780639e07f92a1461011d5780639ede385814610172578063a8b42f1f1461019f578063e2f0a978146101b4578063f0136a6314610209578063f0f324971461021e578063f973728e1461024b575b600080fd5b6100b1610278565b005b34156100be57600080fd5b6100c66104e5565b005b34156100d357600080fd5b6100db6105ab565b604051808273ffffffffffffffffffffffffffffffffffffffff1673ffffffffffffffffffffffffffffffffffffffff16815260200191505060405180910390f35b341561012857600080fd5b6101306105d1565b604051808273ffffffffffffffffffffffffffffffffffffffff1673ffffffffffffffffffffffffffffffffffffffff16815260200191505060405180910390f35b341561017d57600080fd5b6101856105f7565b604051808215151515815260200191505060405180910390f35b34156101aa57600080fd5b6101b261060a565b005b34156101bf57600080fd5b6101c7610784565b604051808273ffffffffffffffffffffffffffffffffffffffff1673ffffffffffffffffffffffffffffffffffffffff16815260200191505060405180910390f35b341561021457600080fd5b61021c6107a9565b005b341561022957600080fd5b6102316107fc565b604051808215151515815260200191505060405180910390f35b341561025657600080fd5b61025e61080f565b604051808215151515815260200191505060405180910390f35b600460009054906101000a900460ff1615801561033957506000809054906101000a900473ffffffffffffffffffffffffffffffffffffffff1673ffffffffffffffffffffffffffffffffffffffff163373ffffffffffffffffffffffffffffffffffffffff1614806103385750600160009054906101000a900473ffffffffffffffffffffffffffffffffffffffff1673ffffffffffffffffffffffffffffffffffffffff163373ffffffffffffffffffffffffffffffffffffffff16145b5b151561034457600080fd5b6000809054906101000a900473ffffffffffffffffffffffffffffffffffffffff1673ffffffffffffffffffffffffffffffffffffffff163373ffffffffffffffffffffffffffffffffffffffff1614156103e55760001515600160149054906101000a900460ff1615151415156103bb57600080fd5b60018060146101000a81548160ff021916908315150217905550346002540160028190555061042d565b60001515600160159054906101000a900460ff16151514151561040757600080fd5b60018060156101000a81548160ff02191690831515021790555034600354016003819055505b600160149054906101000a900460ff1680156104555750600160159054906101000a900460ff165b156104e357600260035402600254101515610499576104946000809054906101000a900473ffffffffffffffffffffffffffffffffffffffff16610822565b6104e2565b60028054026003541015156104d8576104d3600160009054906101000a900473ffffffffffffffffffffffffffffffffffffffff16610822565b6104e1565b6104e06108fb565b5b5b5b565b6000600460009054906101000a900460ff16801561055057503373ffffffffffffffffffffffffffffffffffffffff16600460019054906101000a900473ffffffffffffffffffffffffffffffffffffffff1673ffffffffffffffffffffffffffffffffffffffff16145b151561055b57600080fd5b600554905060006005819055503373ffffffffffffffffffffffffffffffffffffffff166108fc829081150290604051600060405180830381858888f1935050505015156105a857600080fd5b50565b600460019054906101000a900473ffffffffffffffffffffffffffffffffffffffff1681565b600160009054906101000a900473ffffffffffffffffffffffffffffffffffffffff1681565b600160149054906101000a900460ff1681565b600073ffffffffffffffffffffffffffffffffffffffff16600160009054906101000a900473ffffffffffffffffffffffffffffffffffffffff1673ffffffffffffffffffffffffffffffffffffffff1614151561066757600080fd5b33600160006101000a81548173ffffffffffffffffffffffffffffffffffffffff021916908373ffffffffffffffffffffffffffffffffffffffff1602179055507fd4443f0433b17d5fcbda14745060c62f4fd645677efd560e394d49cc6b73b9e56000809054906101000a900473ffffffffffffffffffffffffffffffffffffffff16600160009054906101000a900473ffffffffffffffffffffffffffffffffffffffff16604051808373ffffffffffffffffffffffffffffffffffffffff1673ffffffffffffffffffffffffffffffffffffffff1681526020018273ffffffffffffffffffffffffffffffffffffffff1673ffffffffffffffffffffffffffffffffffffffff1681526020019250505060405180910390a1565b6000809054906101000a900473ffffffffffffffffffffffffffffffffffffffff1681565b6000600460006101000a81548160ff0219169083151502179055506000600160146101000a81548160ff0219169083151502179055506000600160156101000a81548160ff021916908315150217905550565b600460009054906101000a900460ff1681565b600160159054906101000a900460ff1681565b6001600460006101000a81548160ff02191690831515021790555080600460016101000a81548173ffffffffffffffffffffffffffffffffffffffff021916908373ffffffffffffffffffffffffffffffffffffffff160217905550600354600254016005819055507f132c17ee6430a7c27424b2711c0e3f020ae13d9d62cfb347ae343c2180654bcb81600554604051808373ffffffffffffffffffffffffffffffffffffffff1673ffffffffffffffffffffffffffffffffffffffff1681526020018281526020019250505060405180910390a150565b6000600160146101000a81548160ff0219169083151502179055506000600160156101000a81548160ff0219169083151502179055507f4a06b026e39d5ecf4150ef1983227e240bcd23677c8d89479f9521c4e7bed63e600254600354604051808381526020018281526020019250505060405180910390a15600a165627a7a72305820a25bb0d511412c947fe205c59831a0c8287b9c7262ddbc33ae900162191d4cfe0029",
  "source": "pragma solidity ^0.4.17;\r\n\r\ncontract Wrestling3 {\r\n    \r\n    address public wrestler1;\r\n\taddress public wrestler2;\r\n\r\n\tbool public wrestler1Played;\r\n\tbool public wrestler2Played;\r\n\r\n\tuint private wrestler1Deposit;\r\n\tuint private wrestler2Deposit;\r\n\r\n\tbool public gameFinished; \r\n\taddress public theWinner;\r\n\tuint gains;\r\n\r\n\tevent WrestlingStartsEvent(address wrestler1, address wrestler2);\r\n\tevent EndOfRoundEvent(uint wrestler1Deposit, uint wrestler2Deposit);\r\n\tevent EndOfWrestlingEvent(address winner, uint gains);\r\n\r\n\tfunction Wrestling3() public {\r\n\t  wrestler1 = msg.sender;\r\n\t}\r\n\r\n\tfunction registerAsAnOpponent() public {\r\n\t    require(wrestler2 == address(0));\r\n\r\n\t    wrestler2 = msg.sender;\r\n\r\n\t    WrestlingStartsEvent(wrestler1, wrestler2);\r\n\t}\r\n\r\n\tfunction wrestle() public payable {\r\n        require(!gameFinished && (msg.sender == wrestler1 || msg.sender == wrestler2));\r\n\r\n        if(msg.sender == wrestler1) {\r\n            require(wrestler1Played == false);\r\n            wrestler1Played = true;\r\n            wrestler1Deposit = wrestler1Deposit + msg.value;\r\n        } else { \r\n            require(wrestler2Played == false);\r\n            wrestler2Played = true;\r\n            wrestler2Deposit = wrestler2Deposit + msg.value;\r\n        }\r\n        if(wrestler1Played && wrestler2Played) {\r\n            if(wrestler1Deposit >= wrestler2Deposit * 2) {\r\n                endOfGame(wrestler1);\r\n            } else if (wrestler2Deposit >= wrestler1Deposit * 2) {\r\n                endOfGame(wrestler2);\r\n            } else {\r\n                endOfRound();\r\n            }\r\n        }\r\n    }\r\n\r\n    function endOfRound() internal {\r\n        wrestler1Played = false;\r\n        wrestler2Played = false;\r\n\r\n        EndOfRoundEvent(wrestler1Deposit, wrestler2Deposit);\r\n    }\r\n\r\n    function endOfGame(address winner) internal {\r\n        gameFinished = true;\r\n        theWinner = winner;\r\n\r\n        gains = wrestler1Deposit + wrestler2Deposit;\r\n        EndOfWrestlingEvent(winner, gains);\r\n    }\r\n\r\n    function withdraw() public {\r\n        require(gameFinished && theWinner == msg.sender);\r\n\r\n        uint amount = gains;\r\n\r\n        gains = 0;\r\n        msg.sender.transfer(amount);\r\n    }\r\n\r\n    // 原教程没有，添加此函数对合约的业务逻辑进一步完善，我认为，角力结束后应当清除相应的状态，以控制合约的生命周期\r\n    // 添加清除状态函数\r\n    function clearState() public {\r\n        gameFinished = false;\r\n        wrestler1Played = false;\r\n        wrestler2Played = false;\r\n    }\r\n}",
  "sourcePath": "F:\\Ethereum Smart contract\\smart-contract-tutorial2.0\\contracts\\Wrestling3.sol",
  "compiler": {
    "name": "solc",
    "version": "0.4.19+commit.c4cbbb05.Emscripten.clang"
  },
  "schemaVersion": "2.0.0",
  "updatedAt": "2018-04-14T09:57:46.597Z"
}